{
  "contractName": "Marketplace",
  "abi": [
    {
      "constant": true,
      "inputs": [
        {
          "name": "",
          "type": "address"
        }
      ],
      "name": "storeOwners",
      "outputs": [
        {
          "name": "addr",
          "type": "address"
        },
        {
          "name": "name",
          "type": "string"
        },
        {
          "name": "balance",
          "type": "uint256"
        },
        {
          "name": "isEnabled",
          "type": "bool"
        }
      ],
      "payable": false,
      "stateMutability": "view",
      "type": "function"
    },
    {
      "constant": true,
      "inputs": [],
      "name": "marketplaceName",
      "outputs": [
        {
          "name": "",
          "type": "string"
        }
      ],
      "payable": false,
      "stateMutability": "view",
      "type": "function"
    },
    {
      "constant": true,
      "inputs": [],
      "name": "storeId",
      "outputs": [
        {
          "name": "",
          "type": "uint256"
        }
      ],
      "payable": false,
      "stateMutability": "view",
      "type": "function"
    },
    {
      "constant": true,
      "inputs": [
        {
          "name": "",
          "type": "address"
        }
      ],
      "name": "administrators",
      "outputs": [
        {
          "name": "addr",
          "type": "address"
        },
        {
          "name": "name",
          "type": "string"
        },
        {
          "name": "isEnabled",
          "type": "bool"
        }
      ],
      "payable": false,
      "stateMutability": "view",
      "type": "function"
    },
    {
      "constant": true,
      "inputs": [
        {
          "name": "",
          "type": "uint256"
        }
      ],
      "name": "products",
      "outputs": [
        {
          "name": "id",
          "type": "uint256"
        },
        {
          "name": "name",
          "type": "string"
        },
        {
          "name": "description",
          "type": "string"
        },
        {
          "name": "price",
          "type": "uint256"
        },
        {
          "name": "quantity",
          "type": "uint256"
        },
        {
          "name": "storefrontId",
          "type": "uint256"
        }
      ],
      "payable": false,
      "stateMutability": "view",
      "type": "function"
    },
    {
      "constant": true,
      "inputs": [],
      "name": "owner",
      "outputs": [
        {
          "name": "",
          "type": "address"
        }
      ],
      "payable": false,
      "stateMutability": "view",
      "type": "function"
    },
    {
      "constant": true,
      "inputs": [],
      "name": "productId",
      "outputs": [
        {
          "name": "",
          "type": "uint256"
        }
      ],
      "payable": false,
      "stateMutability": "view",
      "type": "function"
    },
    {
      "constant": true,
      "inputs": [
        {
          "name": "",
          "type": "uint256"
        }
      ],
      "name": "stores",
      "outputs": [
        {
          "name": "id",
          "type": "uint256"
        },
        {
          "name": "name",
          "type": "string"
        },
        {
          "name": "description",
          "type": "string"
        },
        {
          "name": "storeOwner",
          "type": "address"
        },
        {
          "name": "state",
          "type": "uint8"
        }
      ],
      "payable": false,
      "stateMutability": "view",
      "type": "function"
    },
    {
      "inputs": [],
      "payable": false,
      "stateMutability": "nonpayable",
      "type": "constructor"
    },
    {
      "anonymous": false,
      "inputs": [
        {
          "indexed": false,
          "name": "specialUserAddress",
          "type": "address"
        },
        {
          "indexed": false,
          "name": "name",
          "type": "string"
        }
      ],
      "name": "specialUserWasRegistered",
      "type": "event"
    },
    {
      "anonymous": false,
      "inputs": [
        {
          "indexed": false,
          "name": "id",
          "type": "uint256"
        },
        {
          "indexed": false,
          "name": "name",
          "type": "string"
        }
      ],
      "name": "storeWasRegistered",
      "type": "event"
    },
    {
      "anonymous": false,
      "inputs": [
        {
          "indexed": false,
          "name": "id",
          "type": "uint256"
        },
        {
          "indexed": false,
          "name": "name",
          "type": "string"
        },
        {
          "indexed": false,
          "name": "price",
          "type": "uint256"
        },
        {
          "indexed": false,
          "name": "store",
          "type": "uint256"
        }
      ],
      "name": "productWasRegistered",
      "type": "event"
    },
    {
      "constant": false,
      "inputs": [
        {
          "name": "_address",
          "type": "address"
        },
        {
          "name": "_name",
          "type": "string"
        }
      ],
      "name": "registerAdmin",
      "outputs": [],
      "payable": false,
      "stateMutability": "nonpayable",
      "type": "function"
    },
    {
      "constant": false,
      "inputs": [
        {
          "name": "_address",
          "type": "address"
        },
        {
          "name": "_name",
          "type": "string"
        }
      ],
      "name": "registerStoreOwner",
      "outputs": [],
      "payable": false,
      "stateMutability": "nonpayable",
      "type": "function"
    },
    {
      "constant": false,
      "inputs": [
        {
          "name": "_name",
          "type": "string"
        },
        {
          "name": "_description",
          "type": "string"
        }
      ],
      "name": "registerStore",
      "outputs": [],
      "payable": false,
      "stateMutability": "nonpayable",
      "type": "function"
    },
    {
      "constant": false,
      "inputs": [
        {
          "name": "_name",
          "type": "string"
        },
        {
          "name": "_description",
          "type": "string"
        },
        {
          "name": "_price",
          "type": "uint256"
        },
        {
          "name": "_quantity",
          "type": "uint256"
        },
        {
          "name": "_storefrontId",
          "type": "uint256"
        }
      ],
      "name": "registerProduct",
      "outputs": [],
      "payable": false,
      "stateMutability": "nonpayable",
      "type": "function"
    },
    {
      "constant": false,
      "inputs": [
        {
          "name": "_id",
          "type": "uint256"
        },
        {
          "name": "_quantity",
          "type": "uint256"
        }
      ],
      "name": "buyProduct",
      "outputs": [],
      "payable": false,
      "stateMutability": "nonpayable",
      "type": "function"
    }
  ],
  "bytecode": "0x60806040523480156200001157600080fd5b50336000806101000a81548173ffffffffffffffffffffffffffffffffffffffff021916908373ffffffffffffffffffffffffffffffffffffffff1602179055506040805190810160405280601181526020017f457468616e204d61726b6574706c616365000000000000000000000000000000815250600190805190602001906200009f929190620000b6565b506001600481905550600160068190555062000165565b828054600181600116156101000203166002900490600052602060002090601f016020900481019282601f10620000f957805160ff19168380011785556200012a565b828001600101855582156200012a579182015b82811115620001295782518255916020019190600101906200010c565b5b5090506200013991906200013d565b5090565b6200016291905b808211156200015e57600081600090555060010162000144565b5090565b90565b611ef480620001756000396000f3006080604052600436106100c5576000357c0100000000000000000000000000000000000000000000000000000000900463ffffffff168063057cc2a1146100ca57806313414e23146101cb5780631d6069fc1461029857806331229361146103285780634e427852146103b157806353b62866146103dc57806376be15851461041357806379c6a1b81461050d5780637acc0b20146105965780638da5cb5b146106c4578063abe472f11461071b578063c5ce3911146107ca578063e8a59cd8146107f5575b600080fd5b3480156100d657600080fd5b5061010b600480360381019080803573ffffffffffffffffffffffffffffffffffffffff169060200190929190505050610956565b604051808573ffffffffffffffffffffffffffffffffffffffff1673ffffffffffffffffffffffffffffffffffffffff1681526020018060200184815260200183151515158152602001828103825285818151815260200191508051906020019080838360005b8381101561018d578082015181840152602081019050610172565b50505050905090810190601f1680156101ba5780820380516001836020036101000a031916815260200191505b509550505050505060405180910390f35b3480156101d757600080fd5b50610296600480360381019080803590602001908201803590602001908080601f0160208091040260200160405190810160405280939291908181526020018383808284378201915050505050509192919290803590602001908201803590602001908080601f0160208091040260200160405190810160405280939291908181526020018383808284378201915050505050509192919290803590602001909291908035906020019092919080359060200190929190505050610a4b565b005b3480156102a457600080fd5b506102ad610fab565b6040518080602001828103825283818151815260200191508051906020019080838360005b838110156102ed5780820151818401526020810190506102d2565b50505050905090810190601f16801561031a5780820380516001836020036101000a031916815260200191505b509250505060405180910390f35b34801561033457600080fd5b506103af600480360381019080803573ffffffffffffffffffffffffffffffffffffffff169060200190929190803590602001908201803590602001908080601f0160208091040260200160405190810160405280939291908181526020018383808284378201915050505050509192919290505050611049565b005b3480156103bd57600080fd5b506103c661131a565b6040518082815260200191505060405180910390f35b3480156103e857600080fd5b506104116004803603810190808035906020019092919080359060200190929190505050611320565b005b34801561041f57600080fd5b50610454600480360381019080803573ffffffffffffffffffffffffffffffffffffffff1690602001909291905050506114b3565b604051808473ffffffffffffffffffffffffffffffffffffffff1673ffffffffffffffffffffffffffffffffffffffff1681526020018060200183151515158152602001828103825284818151815260200191508051906020019080838360005b838110156104d05780820151818401526020810190506104b5565b50505050905090810190601f1680156104fd5780820380516001836020036101000a031916815260200191505b5094505050505060405180910390f35b34801561051957600080fd5b50610594600480360381019080803573ffffffffffffffffffffffffffffffffffffffff169060200190929190803590602001908201803590602001908080601f01602080910402602001604051908101604052809392919081815260200183838082843782019150505050505091929192905050506115a2565b005b3480156105a257600080fd5b506105c160048036038101908080359060200190929190505050611835565b604051808781526020018060200180602001868152602001858152602001848152602001838103835288818151815260200191508051906020019080838360005b8381101561061d578082015181840152602081019050610602565b50505050905090810190601f16801561064a5780820380516001836020036101000a031916815260200191505b50838103825287818151815260200191508051906020019080838360005b83811015610683578082015181840152602081019050610668565b50505050905090810190601f1680156106b05780820380516001836020036101000a031916815260200191505b509850505050505050505060405180910390f35b3480156106d057600080fd5b506106d96119a1565b604051808273ffffffffffffffffffffffffffffffffffffffff1673ffffffffffffffffffffffffffffffffffffffff16815260200191505060405180910390f35b34801561072757600080fd5b506107c8600480360381019080803590602001908201803590602001908080601f0160208091040260200160405190810160405280939291908181526020018383808284378201915050505050509192919290803590602001908201803590602001908080601f01602080910402602001604051908101604052809392919081815260200183838082843782019150505050505091929192905050506119c6565b005b3480156107d657600080fd5b506107df611c8a565b6040518082815260200191505060405180910390f35b34801561080157600080fd5b5061082060048036038101908080359060200190929190505050611c90565b6040518086815260200180602001806020018573ffffffffffffffffffffffffffffffffffffffff1673ffffffffffffffffffffffffffffffffffffffff16815260200184600181111561087057fe5b60ff168152602001838103835287818151815260200191508051906020019080838360005b838110156108b0578082015181840152602081019050610895565b50505050905090810190601f1680156108dd5780820380516001836020036101000a031916815260200191505b50838103825286818151815260200191508051906020019080838360005b838110156109165780820151818401526020810190506108fb565b50505050905090810190601f1680156109435780820380516001836020036101000a031916815260200191505b5097505050505050505060405180910390f35b60036020528060005260406000206000915090508060000160009054906101000a900473ffffffffffffffffffffffffffffffffffffffff1690806001018054600181600116156101000203166002900480601f016020809104026020016040519081016040528092919081815260200182805460018160011615610100020316600290048015610a285780601f106109fd57610100808354040283529160200191610a28565b820191906000526020600020905b815481529060010190602001808311610a0b57829003601f168201915b5050505050908060020154908060030160009054906101000a900460ff16905084565b60011515600360003373ffffffffffffffffffffffffffffffffffffffff1673ffffffffffffffffffffffffffffffffffffffff16815260200190815260200160002060030160009054906101000a900460ff161515141515610b3c576040517f08c379a00000000000000000000000000000000000000000000000000000000081526004018080602001828103825260228152602001807f596f7520617265206e6f742061626c6520746f206372656174652073746f726581526020017f732e00000000000000000000000000000000000000000000000000000000000081525060400191505060405180910390fd5b80806005600083815260200190815260200160002060000154141515610bf0576040517f08c379a00000000000000000000000000000000000000000000000000000000081526004018080602001828103825260298152602001807f5468652070726f76696465642073746f726566726f6e7420494420646f65736e81526020017f27742065786973742e000000000000000000000000000000000000000000000081525060400191505060405180910390fd5b813373ffffffffffffffffffffffffffffffffffffffff166005600083815260200190815260200160002060030160009054906101000a900473ffffffffffffffffffffffffffffffffffffffff1673ffffffffffffffffffffffffffffffffffffffff16141515610cf0576040517f08c379a00000000000000000000000000000000000000000000000000000000081526004018080602001828103825260328152602001807f596f752063616e206f6e6c792072656769737465722070726f6475637473206981526020017f6e20612073746f726520796f75206f776e2e000000000000000000000000000081525060400191505060405180910390fd5b8484600082111515610d90576040517f08c379a000000000000000000000000000000000000000000000000000000000815260040180806020018281038252602a8152602001807f50726f647563742070726963652068617320746f20626520677265617465722081526020017f7468616e207a65726f2e0000000000000000000000000000000000000000000081525060400191505060405180910390fd5b60008110151515610e2f576040517f08c379a00000000000000000000000000000000000000000000000000000000081526004018080602001828103825260368152602001807f50726f64756374207175616e746974792068617320746f20626520657175616c81526020017f206f722067726561746572207468616e207a65726f2e0000000000000000000081525060400191505060405180910390fd5b60c06040519081016040528060065481526020018a815260200189815260200188815260200187815260200186815250600760006006548152602001908152602001600020600082015181600001556020820151816001019080519060200190610e9a929190611e23565b506040820151816002019080519060200190610eb7929190611e23565b50606082015181600301556080820151816004015560a082015181600501559050507f9a65491bcc1cae45ea37ba7c56cc80ed930548bdddecea8aaf4a1e047a4e6d766006548a89886040518085815260200180602001848152602001838152602001828103825285818151815260200191508051906020019080838360005b83811015610f52578082015181840152602081019050610f37565b50505050905090810190601f168015610f7f5780820380516001836020036101000a031916815260200191505b509550505050505060405180910390a16001600660008282540192505081905550505050505050505050565b60018054600181600116156101000203166002900480601f0160208091040260200160405190810160405280929190818152602001828054600181600116156101000203166002900480156110415780601f1061101657610100808354040283529160200191611041565b820191906000526020600020905b81548152906001019060200180831161102457829003601f168201915b505050505081565b60011515600260003373ffffffffffffffffffffffffffffffffffffffff1673ffffffffffffffffffffffffffffffffffffffff16815260200190815260200160002060020160009054906101000a900460ff16151514151561113a576040517f08c379a00000000000000000000000000000000000000000000000000000000081526004018080602001828103825260278152602001807f596f75277265206e6f742061206d61726b6574706c6163652061646d696e697381526020017f747261746f722e0000000000000000000000000000000000000000000000000081525060400191505060405180910390fd5b6080604051908101604052808373ffffffffffffffffffffffffffffffffffffffff1681526020018281526020016000815260200160011515815250600360008473ffffffffffffffffffffffffffffffffffffffff1673ffffffffffffffffffffffffffffffffffffffff16815260200190815260200160002060008201518160000160006101000a81548173ffffffffffffffffffffffffffffffffffffffff021916908373ffffffffffffffffffffffffffffffffffffffff1602179055506020820151816001019080519060200190611218929190611e23565b506040820151816002015560608201518160030160006101000a81548160ff0219169083151502179055509050507f0605cc802a7b3d18e9ae7d3533b47cfa9f47e28d43c4d3f9c58b39f47fdcefde8282604051808373ffffffffffffffffffffffffffffffffffffffff1673ffffffffffffffffffffffffffffffffffffffff16815260200180602001828103825283818151815260200191508051906020019080838360005b838110156112db5780820151818401526020810190506112c0565b50505050905090810190601f1680156113085780820380516001836020036101000a031916815260200191505b50935050505060405180910390a15050565b60045481565b81818160076000848152602001908152602001600020600001541415156113d5576040517f08c379a00000000000000000000000000000000000000000000000000000000081526004018080602001828103825260268152602001807f5468652070726f76696465642070726f6475637420494420646f65736e27742081526020017f65786973742e000000000000000000000000000000000000000000000000000081525060400191505060405180910390fd5b80600760008481526020019081526020016000206004015410151515611489576040517f08c379a00000000000000000000000000000000000000000000000000000000081526004018080602001828103825260398152602001807f54686572652773206e6f7420656e6f7567682073746f636b20617661696c616281526020017f6c6520746f2066756c6c66696c20796f7572206f726465722e0000000000000081525060400191505060405180910390fd5b82600760008681526020019081526020016000206004016000828254039250508190555050505050565b60026020528060005260406000206000915090508060000160009054906101000a900473ffffffffffffffffffffffffffffffffffffffff1690806001018054600181600116156101000203166002900480601f0160208091040260200160405190810160405280929190818152602001828054600181600116156101000203166002900480156115855780601f1061155a57610100808354040283529160200191611585565b820191906000526020600020905b81548152906001019060200180831161156857829003601f168201915b5050505050908060020160009054906101000a900460ff16905083565b6000809054906101000a900473ffffffffffffffffffffffffffffffffffffffff1673ffffffffffffffffffffffffffffffffffffffff163373ffffffffffffffffffffffffffffffffffffffff16141515611666576040517f08c379a000000000000000000000000000000000000000000000000000000000815260040180806020018281038252601e8152602001807f596f75277265206e6f742074686520636f6e7472616374206f776e65722e000081525060200191505060405180910390fd5b6060604051908101604052808373ffffffffffffffffffffffffffffffffffffffff16815260200182815260200160011515815250600260008473ffffffffffffffffffffffffffffffffffffffff1673ffffffffffffffffffffffffffffffffffffffff16815260200190815260200160002060008201518160000160006101000a81548173ffffffffffffffffffffffffffffffffffffffff021916908373ffffffffffffffffffffffffffffffffffffffff160217905550602082015181600101908051906020019061173d929190611e23565b5060408201518160020160006101000a81548160ff0219169083151502179055509050507f0605cc802a7b3d18e9ae7d3533b47cfa9f47e28d43c4d3f9c58b39f47fdcefde8282604051808373ffffffffffffffffffffffffffffffffffffffff1673ffffffffffffffffffffffffffffffffffffffff16815260200180602001828103825283818151815260200191508051906020019080838360005b838110156117f65780820151818401526020810190506117db565b50505050905090810190601f1680156118235780820380516001836020036101000a031916815260200191505b50935050505060405180910390a15050565b6007602052806000526040600020600091509050806000015490806001018054600181600116156101000203166002900480601f0160208091040260200160405190810160405280929190818152602001828054600181600116156101000203166002900480156118e75780601f106118bc576101008083540402835291602001916118e7565b820191906000526020600020905b8154815290600101906020018083116118ca57829003601f168201915b505050505090806002018054600181600116156101000203166002900480601f0160208091040260200160405190810160405280929190818152602001828054600181600116156101000203166002900480156119855780601f1061195a57610100808354040283529160200191611985565b820191906000526020600020905b81548152906001019060200180831161196857829003601f168201915b5050505050908060030154908060040154908060050154905086565b6000809054906101000a900473ffffffffffffffffffffffffffffffffffffffff1681565b60011515600360003373ffffffffffffffffffffffffffffffffffffffff1673ffffffffffffffffffffffffffffffffffffffff16815260200190815260200160002060030160009054906101000a900460ff161515141515611ab7576040517f08c379a00000000000000000000000000000000000000000000000000000000081526004018080602001828103825260228152602001807f596f7520617265206e6f742061626c6520746f206372656174652073746f726581526020017f732e00000000000000000000000000000000000000000000000000000000000081525060400191505060405180910390fd5b60a06040519081016040528060045481526020018381526020018281526020013373ffffffffffffffffffffffffffffffffffffffff16815260200160006001811115611b0057fe5b815250600560006004548152602001908152602001600020600082015181600001556020820151816001019080519060200190611b3e929190611e23565b506040820151816002019080519060200190611b5b929190611e23565b5060608201518160030160006101000a81548173ffffffffffffffffffffffffffffffffffffffff021916908373ffffffffffffffffffffffffffffffffffffffff16021790555060808201518160030160146101000a81548160ff02191690836001811115611bc757fe5b02179055509050507fe74c350de5f0146f73c654eedd75653dc77ed9ad69c52cd1866d7077840728c5600454836040518083815260200180602001828103825283818151815260200191508051906020019080838360005b83811015611c3a578082015181840152602081019050611c1f565b50505050905090810190601f168015611c675780820380516001836020036101000a031916815260200191505b50935050505060405180910390a160016004600082825401925050819055505050565b60065481565b6005602052806000526040600020600091509050806000015490806001018054600181600116156101000203166002900480601f016020809104026020016040519081016040528092919081815260200182805460018160011615610100020316600290048015611d425780601f10611d1757610100808354040283529160200191611d42565b820191906000526020600020905b815481529060010190602001808311611d2557829003601f168201915b505050505090806002018054600181600116156101000203166002900480601f016020809104026020016040519081016040528092919081815260200182805460018160011615610100020316600290048015611de05780601f10611db557610100808354040283529160200191611de0565b820191906000526020600020905b815481529060010190602001808311611dc357829003601f168201915b5050505050908060030160009054906101000a900473ffffffffffffffffffffffffffffffffffffffff16908060030160149054906101000a900460ff16905085565b828054600181600116156101000203166002900490600052602060002090601f016020900481019282601f10611e6457805160ff1916838001178555611e92565b82800160010185558215611e92579182015b82811115611e91578251825591602001919060010190611e76565b5b509050611e9f9190611ea3565b5090565b611ec591905b80821115611ec1576000816000905550600101611ea9565b5090565b905600a165627a7a72305820ee92d2ea4715ba9bd4feaf7ee511002e1f9971b770096e6c2b4e05eec588af460029",
  "source": "pragma solidity ^0.4.23;\n\ncontract Marketplace {\n\n    /* Define contract owner */\n    address public owner;\n\n    /* Marketplace name */\n    string public marketplaceName;\n\n    /* Map marketplace administrators */\n    mapping (address => Administrator) public administrators;\n\n    /* Map registered store owners */\n    mapping (address => StoreOwner) public storeOwners;\n\n    /* storeId will be used to track stores */\n    uint public storeId;\n    /* Map registered stores */\n    mapping (uint => Store) public stores;\n\n    /* productId will be used to track products */\n    uint public productId;\n    /* Map registered products */\n    mapping (uint => Product) public products;\n\n\n    /* Enums */\n    enum StoreState { Opened, Closed }\n\n\n    /* Structs */\n    struct Administrator {\n        address addr;\n        string name;\n        bool isEnabled; // Enable admin permissions\n    }\n\n    struct StoreOwner {\n        address addr;\n        string name;\n        uint balance;\n        bool isEnabled; // Enable store owner permissions\n    }\n\n    struct Store {\n        uint id;\n        string name;\n        string description;\n        address storeOwner;\n        StoreState state;\n    }\n\n    struct Product {\n        uint id;\n        string name;\n        string description;\n        uint price;\n        uint quantity;\n        uint storefrontId;\n    }\n\n\n    /* Events */\n    event specialUserWasRegistered (address specialUserAddress, string name);\n    event storeWasRegistered (uint id, string name);\n    event productWasRegistered (uint id, string name, uint price, uint store);\n\n\n    /* Modifiers */\n    modifier isOwner() {\n        require (msg.sender == owner, \"You're not the contract owner.\");\n        _;\n    }\n\n    modifier isAdmin() {\n        require (administrators[msg.sender].isEnabled == true, \"You're not a marketplace administrator.\");\n        _;\n    }\n\n    modifier isStoreOwnerEnabled() {\n        require (storeOwners[msg.sender].isEnabled == true, \"You are not able to create stores.\");\n        _;\n    }\n\n    modifier checkStoreExistence(uint _id) {\n        require (stores[_id].id == _id, \"The provided storefront ID doesn't exist.\");\n        _;\n    }\n    \n    modifier checkStoreOwner(uint _id) {\n        require (stores[_id].storeOwner == msg.sender, \"You can only register products in a store you own.\");\n        _;\n    }\n\n    modifier checkInsertedProductInfo(uint _price, uint _quantity) {\n        require (_price > 0, \"Product price has to be greater than zero.\");\n        require (_quantity >= 0, \"Product quantity has to be equal or greater than zero.\");\n        _;\n    }\n\n    modifier checkProductExistenceAndQuantity(uint _id, uint _quantity) {\n        require (products[_id].id == _id, \"The provided product ID doesn't exist.\");\n        require (products[_id].quantity >= _quantity, \"There's not enough stock available to fullfil your order.\");\n        _;\n    }\n\n\n    constructor() public {\n        /* Set the owner as the person who instantiated the contract */\n        owner = msg.sender;\n\n        /* Set the Marketplace name */\n        marketplaceName = \"Ethan Marketplace\";\n\n        /* Set the inital value for storeId */\n        storeId = 1;\n\n        /* Set the inital value for produtcId */\n        productId = 1;\n    }\n\n\n    /* Functions */\n    /* Register a marketplace administrator */\n    function registerAdmin(address _address, string _name) public isOwner() {\n        administrators[_address] = Administrator({\n            addr: _address,\n            name: _name,\n            isEnabled: true\n        });\n\n        emit specialUserWasRegistered(_address, _name);\n    }\n\n    /* Register a store owner */\n    function registerStoreOwner(address _address, string _name) public isAdmin() {\n\n        storeOwners[_address] = StoreOwner({\n            addr: _address,\n            name: _name,\n            balance: 0, // Store owners balance always start with zero\n            isEnabled: true\n        });\n\n        emit specialUserWasRegistered(_address, _name);\n    }\n\n    /* Register a store */\n    function registerStore(string _name, string _description) public isStoreOwnerEnabled() {\n        \n        stores[storeId] = Store({\n            id: storeId,\n            name: _name,\n            description: _description,\n            storeOwner: msg.sender,\n            state: StoreState.Opened\n        });\n\n        emit storeWasRegistered(storeId, _name);\n\n        storeId += 1;\n    }\n\n    /* Register a product */\n    function registerProduct(string _name, string _description, uint _price, uint _quantity, uint _storefrontId) public\n        isStoreOwnerEnabled() checkStoreExistence(_storefrontId) checkStoreOwner(_storefrontId) checkInsertedProductInfo(_price, _quantity) {\n\n        products[productId] = Product({\n            id: productId,\n            name: _name,\n            description: _description,\n            price: _price,\n            quantity: _quantity,\n            storefrontId: _storefrontId\n        });\n\n        emit productWasRegistered(productId, _name, _price, _storefrontId);\n\n        productId += 1;\n    }\n\n    /* Buy a product */\n    function buyProduct(uint _id, uint _quantity) public checkProductExistenceAndQuantity(_id, _quantity) {\n        products[_id].quantity -= _quantity;\n    }\n\n}",
  "sourcePath": "/home/lbritoinacio/hacks/solidity/marketplace/contracts/Marketplace.sol",
  "compiler": {
    "name": "solc",
    "version": "0.4.24+commit.e67f0147.Emscripten.clang"
  },
  "schemaVersion": "2.0.1",
  "updatedAt": "2018-08-23T21:31:08.209Z"
}