{
  "contractName": "Marketplace",
  "abi": [
    {
      "constant": true,
      "inputs": [
        {
          "name": "",
          "type": "address"
        }
      ],
      "name": "storeOwnersMapping",
      "outputs": [
        {
          "name": "addr",
          "type": "address"
        },
        {
          "name": "name",
          "type": "string"
        },
        {
          "name": "balance",
          "type": "uint256"
        },
        {
          "name": "isEnabled",
          "type": "bool"
        }
      ],
      "payable": false,
      "stateMutability": "view",
      "type": "function"
    },
    {
      "constant": true,
      "inputs": [],
      "name": "marketplaceName",
      "outputs": [
        {
          "name": "",
          "type": "string"
        }
      ],
      "payable": false,
      "stateMutability": "view",
      "type": "function"
    },
    {
      "constant": true,
      "inputs": [
        {
          "name": "",
          "type": "uint256"
        }
      ],
      "name": "storeOwners",
      "outputs": [
        {
          "name": "",
          "type": "address"
        }
      ],
      "payable": false,
      "stateMutability": "view",
      "type": "function"
    },
    {
      "constant": true,
      "inputs": [],
      "name": "storeId",
      "outputs": [
        {
          "name": "",
          "type": "uint256"
        }
      ],
      "payable": false,
      "stateMutability": "view",
      "type": "function"
    },
    {
      "constant": true,
      "inputs": [
        {
          "name": "",
          "type": "uint256"
        }
      ],
      "name": "products",
      "outputs": [
        {
          "name": "",
          "type": "uint256"
        }
      ],
      "payable": false,
      "stateMutability": "view",
      "type": "function"
    },
    {
      "constant": true,
      "inputs": [
        {
          "name": "",
          "type": "address"
        }
      ],
      "name": "administratorsMapping",
      "outputs": [
        {
          "name": "addr",
          "type": "address"
        },
        {
          "name": "name",
          "type": "string"
        },
        {
          "name": "isEnabled",
          "type": "bool"
        }
      ],
      "payable": false,
      "stateMutability": "view",
      "type": "function"
    },
    {
      "constant": true,
      "inputs": [],
      "name": "owner",
      "outputs": [
        {
          "name": "",
          "type": "address"
        }
      ],
      "payable": false,
      "stateMutability": "view",
      "type": "function"
    },
    {
      "constant": true,
      "inputs": [
        {
          "name": "",
          "type": "uint256"
        }
      ],
      "name": "productsMapping",
      "outputs": [
        {
          "name": "id",
          "type": "uint256"
        },
        {
          "name": "name",
          "type": "string"
        },
        {
          "name": "description",
          "type": "string"
        },
        {
          "name": "price",
          "type": "uint256"
        },
        {
          "name": "quantity",
          "type": "uint256"
        },
        {
          "name": "storefrontId",
          "type": "uint256"
        }
      ],
      "payable": false,
      "stateMutability": "view",
      "type": "function"
    },
    {
      "constant": true,
      "inputs": [],
      "name": "productId",
      "outputs": [
        {
          "name": "",
          "type": "uint256"
        }
      ],
      "payable": false,
      "stateMutability": "view",
      "type": "function"
    },
    {
      "constant": true,
      "inputs": [
        {
          "name": "",
          "type": "uint256"
        }
      ],
      "name": "storesMapping",
      "outputs": [
        {
          "name": "id",
          "type": "uint256"
        },
        {
          "name": "name",
          "type": "string"
        },
        {
          "name": "description",
          "type": "string"
        },
        {
          "name": "storeOwner",
          "type": "address"
        },
        {
          "name": "state",
          "type": "uint8"
        }
      ],
      "payable": false,
      "stateMutability": "view",
      "type": "function"
    },
    {
      "constant": true,
      "inputs": [
        {
          "name": "",
          "type": "uint256"
        }
      ],
      "name": "administrators",
      "outputs": [
        {
          "name": "",
          "type": "address"
        }
      ],
      "payable": false,
      "stateMutability": "view",
      "type": "function"
    },
    {
      "constant": true,
      "inputs": [
        {
          "name": "",
          "type": "uint256"
        }
      ],
      "name": "stores",
      "outputs": [
        {
          "name": "",
          "type": "uint256"
        }
      ],
      "payable": false,
      "stateMutability": "view",
      "type": "function"
    },
    {
      "inputs": [],
      "payable": false,
      "stateMutability": "nonpayable",
      "type": "constructor"
    },
    {
      "anonymous": false,
      "inputs": [
        {
          "indexed": false,
          "name": "specialUserAddress",
          "type": "address"
        },
        {
          "indexed": false,
          "name": "name",
          "type": "string"
        }
      ],
      "name": "specialUserWasRegistered",
      "type": "event"
    },
    {
      "anonymous": false,
      "inputs": [
        {
          "indexed": false,
          "name": "id",
          "type": "uint256"
        },
        {
          "indexed": false,
          "name": "name",
          "type": "string"
        }
      ],
      "name": "storeWasRegistered",
      "type": "event"
    },
    {
      "anonymous": false,
      "inputs": [
        {
          "indexed": false,
          "name": "id",
          "type": "uint256"
        },
        {
          "indexed": false,
          "name": "name",
          "type": "string"
        },
        {
          "indexed": false,
          "name": "price",
          "type": "uint256"
        },
        {
          "indexed": false,
          "name": "store",
          "type": "uint256"
        }
      ],
      "name": "productWasRegistered",
      "type": "event"
    },
    {
      "constant": false,
      "inputs": [
        {
          "name": "_address",
          "type": "address"
        },
        {
          "name": "_name",
          "type": "string"
        }
      ],
      "name": "registerAdmin",
      "outputs": [],
      "payable": false,
      "stateMutability": "nonpayable",
      "type": "function"
    },
    {
      "constant": true,
      "inputs": [],
      "name": "getAdmins",
      "outputs": [
        {
          "name": "",
          "type": "address[]"
        }
      ],
      "payable": false,
      "stateMutability": "view",
      "type": "function"
    },
    {
      "constant": false,
      "inputs": [
        {
          "name": "_address",
          "type": "address"
        },
        {
          "name": "_name",
          "type": "string"
        }
      ],
      "name": "registerStoreOwner",
      "outputs": [],
      "payable": false,
      "stateMutability": "nonpayable",
      "type": "function"
    },
    {
      "constant": true,
      "inputs": [],
      "name": "getStoreOwners",
      "outputs": [
        {
          "name": "",
          "type": "address[]"
        }
      ],
      "payable": false,
      "stateMutability": "view",
      "type": "function"
    },
    {
      "constant": false,
      "inputs": [
        {
          "name": "_name",
          "type": "string"
        },
        {
          "name": "_description",
          "type": "string"
        }
      ],
      "name": "registerStore",
      "outputs": [],
      "payable": false,
      "stateMutability": "nonpayable",
      "type": "function"
    },
    {
      "constant": true,
      "inputs": [],
      "name": "getStores",
      "outputs": [
        {
          "name": "",
          "type": "uint256[]"
        }
      ],
      "payable": false,
      "stateMutability": "view",
      "type": "function"
    },
    {
      "constant": false,
      "inputs": [
        {
          "name": "_name",
          "type": "string"
        },
        {
          "name": "_description",
          "type": "string"
        },
        {
          "name": "_price",
          "type": "uint256"
        },
        {
          "name": "_quantity",
          "type": "uint256"
        },
        {
          "name": "_storefrontId",
          "type": "uint256"
        }
      ],
      "name": "registerProduct",
      "outputs": [],
      "payable": false,
      "stateMutability": "nonpayable",
      "type": "function"
    },
    {
      "constant": true,
      "inputs": [],
      "name": "getProducts",
      "outputs": [
        {
          "name": "",
          "type": "uint256[]"
        }
      ],
      "payable": false,
      "stateMutability": "view",
      "type": "function"
    },
    {
      "constant": false,
      "inputs": [
        {
          "name": "_id",
          "type": "uint256"
        },
        {
          "name": "_quantity",
          "type": "uint256"
        }
      ],
      "name": "buyProduct",
      "outputs": [],
      "payable": false,
      "stateMutability": "nonpayable",
      "type": "function"
    }
  ],
  "bytecode": "0x60806040523480156200001157600080fd5b50336000806101000a81548173ffffffffffffffffffffffffffffffffffffffff021916908373ffffffffffffffffffffffffffffffffffffffff1602179055506040805190810160405280601481526020017f457468657265756d204d61726b6574706c616365000000000000000000000000815250600190805190602001906200009f929190620000b6565b506001600681905550600160098190555062000165565b828054600181600116156101000203166002900490600052602060002090601f016020900481019282601f10620000f957805160ff19168380011785556200012a565b828001600101855582156200012a579182015b82811115620001295782518255916020019190600101906200010c565b5b5090506200013991906200013d565b5090565b6200016291905b808211156200015e57600081600090555060010162000144565b5090565b90565b61260e80620001756000396000f30060806040526004361061011d576000357c0100000000000000000000000000000000000000000000000000000000900463ffffffff16806302970ae11461012257806313414e23146102235780631d6069fc146102f0578063312293611461038057806331ae450b1461040957806344d50993146104755780634e427852146104e257806353b628661461050d5780635dc917f01461054457806379c6a1b8146105b05780637acc0b20146106395780637f056ec61461067a5780638da5cb5b146107745780638ec8b920146107cb57806391f4245a146108f9578063abe472f114610965578063c29b2f2014610a14578063c5ce391114610a80578063d74287b814610aab578063d89d151014610c0c578063e8a59cd814610c79575b600080fd5b34801561012e57600080fd5b50610163600480360381019080803573ffffffffffffffffffffffffffffffffffffffff169060200190929190505050610cba565b604051808573ffffffffffffffffffffffffffffffffffffffff1673ffffffffffffffffffffffffffffffffffffffff1681526020018060200184815260200183151515158152602001828103825285818151815260200191508051906020019080838360005b838110156101e55780820151818401526020810190506101ca565b50505050905090810190601f1680156102125780820380516001836020036101000a031916815260200191505b509550505050505060405180910390f35b34801561022f57600080fd5b506102ee600480360381019080803590602001908201803590602001908080601f0160208091040260200160405190810160405280939291908181526020018383808284378201915050505050509192919290803590602001908201803590602001908080601f0160208091040260200160405190810160405280939291908181526020018383808284378201915050505050509192919290803590602001909291908035906020019092919080359060200190929190505050610daf565b005b3480156102fc57600080fd5b5061030561133d565b6040518080602001828103825283818151815260200191508051906020019080838360005b8381101561034557808201518184015260208101905061032a565b50505050905090810190601f1680156103725780820380516001836020036101000a031916815260200191505b509250505060405180910390f35b34801561038c57600080fd5b50610407600480360381019080803573ffffffffffffffffffffffffffffffffffffffff169060200190929190803590602001908201803590602001908080601f01602080910402602001604051908101604052809392919081815260200183838082843782019150505050505091929192905050506113db565b005b34801561041557600080fd5b5061041e611712565b6040518080602001828103825283818151815260200191508051906020019060200280838360005b83811015610461578082015181840152602081019050610446565b505050509050019250505060405180910390f35b34801561048157600080fd5b506104a0600480360381019080803590602001909291905050506117a0565b604051808273ffffffffffffffffffffffffffffffffffffffff1673ffffffffffffffffffffffffffffffffffffffff16815260200191505060405180910390f35b3480156104ee57600080fd5b506104f76117de565b6040518082815260200191505060405180910390f35b34801561051957600080fd5b5061054260048036038101908080359060200190929190803590602001909291905050506117e4565b005b34801561055057600080fd5b50610559611977565b6040518080602001828103825283818151815260200191508051906020019060200280838360005b8381101561059c578082015181840152602081019050610581565b505050509050019250505060405180910390f35b3480156105bc57600080fd5b50610637600480360381019080803573ffffffffffffffffffffffffffffffffffffffff169060200190929190803590602001908201803590602001908080601f01602080910402602001604051908101604052809392919081815260200183838082843782019150505050505091929192905050506119cf565b005b34801561064557600080fd5b5061066460048036038101908080359060200190929190505050611cc8565b6040518082815260200191505060405180910390f35b34801561068657600080fd5b506106bb600480360381019080803573ffffffffffffffffffffffffffffffffffffffff169060200190929190505050611ceb565b604051808473ffffffffffffffffffffffffffffffffffffffff1673ffffffffffffffffffffffffffffffffffffffff1681526020018060200183151515158152602001828103825284818151815260200191508051906020019080838360005b8381101561073757808201518184015260208101905061071c565b50505050905090810190601f1680156107645780820380516001836020036101000a031916815260200191505b5094505050505060405180910390f35b34801561078057600080fd5b50610789611dda565b604051808273ffffffffffffffffffffffffffffffffffffffff1673ffffffffffffffffffffffffffffffffffffffff16815260200191505060405180910390f35b3480156107d757600080fd5b506107f660048036038101908080359060200190929190505050611dff565b604051808781526020018060200180602001868152602001858152602001848152602001838103835288818151815260200191508051906020019080838360005b83811015610852578082015181840152602081019050610837565b50505050905090810190601f16801561087f5780820380516001836020036101000a031916815260200191505b50838103825287818151815260200191508051906020019080838360005b838110156108b857808201518184015260208101905061089d565b50505050905090810190601f1680156108e55780820380516001836020036101000a031916815260200191505b509850505050505050505060405180910390f35b34801561090557600080fd5b5061090e611f6b565b6040518080602001828103825283818151815260200191508051906020019060200280838360005b83811015610951578082015181840152602081019050610936565b505050509050019250505060405180910390f35b34801561097157600080fd5b50610a12600480360381019080803590602001908201803590602001908080601f0160208091040260200160405190810160405280939291908181526020018383808284378201915050505050509192919290803590602001908201803590602001908080601f0160208091040260200160405190810160405280939291908181526020018383808284378201915050505050509192919290505050611ff9565b005b348015610a2057600080fd5b50610a296122eb565b6040518080602001828103825283818151815260200191508051906020019060200280838360005b83811015610a6c578082015181840152602081019050610a51565b505050509050019250505060405180910390f35b348015610a8c57600080fd5b50610a95612343565b6040518082815260200191505060405180910390f35b348015610ab757600080fd5b50610ad660048036038101908080359060200190929190505050612349565b6040518086815260200180602001806020018573ffffffffffffffffffffffffffffffffffffffff1673ffffffffffffffffffffffffffffffffffffffff168152602001846001811115610b2657fe5b60ff168152602001838103835287818151815260200191508051906020019080838360005b83811015610b66578082015181840152602081019050610b4b565b50505050905090810190601f168015610b935780820380516001836020036101000a031916815260200191505b50838103825286818151815260200191508051906020019080838360005b83811015610bcc578082015181840152602081019050610bb1565b50505050905090810190601f168015610bf95780820380516001836020036101000a031916815260200191505b5097505050505050505060405180910390f35b348015610c1857600080fd5b50610c37600480360381019080803590602001909291905050506124dc565b604051808273ffffffffffffffffffffffffffffffffffffffff1673ffffffffffffffffffffffffffffffffffffffff16815260200191505060405180910390f35b348015610c8557600080fd5b50610ca46004803603810190808035906020019092919050505061251a565b6040518082815260200191505060405180910390f35b60046020528060005260406000206000915090508060000160009054906101000a900473ffffffffffffffffffffffffffffffffffffffff1690806001018054600181600116156101000203166002900480601f016020809104026020016040519081016040528092919081815260200182805460018160011615610100020316600290048015610d8c5780601f10610d6157610100808354040283529160200191610d8c565b820191906000526020600020905b815481529060010190602001808311610d6f57829003601f168201915b5050505050908060020154908060030160009054906101000a900460ff16905084565b60011515600460003373ffffffffffffffffffffffffffffffffffffffff1673ffffffffffffffffffffffffffffffffffffffff16815260200190815260200160002060030160009054906101000a900460ff161515141515610ea0576040517f08c379a00000000000000000000000000000000000000000000000000000000081526004018080602001828103825260228152602001807f596f7520617265206e6f742061626c6520746f206372656174652073746f726581526020017f732e00000000000000000000000000000000000000000000000000000000000081525060400191505060405180910390fd5b80806007600083815260200190815260200160002060000154141515610f54576040517f08c379a00000000000000000000000000000000000000000000000000000000081526004018080602001828103825260298152602001807f5468652070726f76696465642073746f726566726f6e7420494420646f65736e81526020017f27742065786973742e000000000000000000000000000000000000000000000081525060400191505060405180910390fd5b813373ffffffffffffffffffffffffffffffffffffffff166007600083815260200190815260200160002060030160009054906101000a900473ffffffffffffffffffffffffffffffffffffffff1673ffffffffffffffffffffffffffffffffffffffff16141515611054576040517f08c379a00000000000000000000000000000000000000000000000000000000081526004018080602001828103825260328152602001807f596f752063616e206f6e6c792072656769737465722070726f6475637473206981526020017f6e20612073746f726520796f75206f776e2e000000000000000000000000000081525060400191505060405180910390fd5b84846000821115156110f4576040517f08c379a000000000000000000000000000000000000000000000000000000000815260040180806020018281038252602a8152602001807f50726f647563742070726963652068617320746f20626520677265617465722081526020017f7468616e207a65726f2e0000000000000000000000000000000000000000000081525060400191505060405180910390fd5b60008110151515611193576040517f08c379a00000000000000000000000000000000000000000000000000000000081526004018080602001828103825260368152602001807f50726f64756374207175616e746974792068617320746f20626520657175616c81526020017f206f722067726561746572207468616e207a65726f2e0000000000000000000081525060400191505060405180910390fd5b60c06040519081016040528060095481526020018a815260200189815260200188815260200187815260200186815250600a600060095481526020019081526020016000206000820151816000015560208201518160010190805190602001906111fe92919061253d565b50604082015181600201908051906020019061121b92919061253d565b50606082015181600301556080820151816004015560a08201518160050155905050600b60095490806001815401808255809150509060018203906000526020600020016000909192909190915055507f9a65491bcc1cae45ea37ba7c56cc80ed930548bdddecea8aaf4a1e047a4e6d766009548a89886040518085815260200180602001848152602001838152602001828103825285818151815260200191508051906020019080838360005b838110156112e45780820151818401526020810190506112c9565b50505050905090810190601f1680156113115780820380516001836020036101000a031916815260200191505b509550505050505060405180910390a16001600960008282540192505081905550505050505050505050565b60018054600181600116156101000203166002900480601f0160208091040260200160405190810160405280929190818152602001828054600181600116156101000203166002900480156113d35780601f106113a8576101008083540402835291602001916113d3565b820191906000526020600020905b8154815290600101906020018083116113b657829003601f168201915b505050505081565b60011515600260003373ffffffffffffffffffffffffffffffffffffffff1673ffffffffffffffffffffffffffffffffffffffff16815260200190815260200160002060020160009054906101000a900460ff1615151415156114cc576040517f08c379a00000000000000000000000000000000000000000000000000000000081526004018080602001828103825260278152602001807f596f75277265206e6f742061206d61726b6574706c6163652061646d696e697381526020017f747261746f722e0000000000000000000000000000000000000000000000000081525060400191505060405180910390fd5b6080604051908101604052808373ffffffffffffffffffffffffffffffffffffffff1681526020018281526020016000815260200160011515815250600460008473ffffffffffffffffffffffffffffffffffffffff1673ffffffffffffffffffffffffffffffffffffffff16815260200190815260200160002060008201518160000160006101000a81548173ffffffffffffffffffffffffffffffffffffffff021916908373ffffffffffffffffffffffffffffffffffffffff16021790555060208201518160010190805190602001906115aa92919061253d565b506040820151816002015560608201518160030160006101000a81548160ff02191690831515021790555090505060058290806001815401808255809150509060018203906000526020600020016000909192909190916101000a81548173ffffffffffffffffffffffffffffffffffffffff021916908373ffffffffffffffffffffffffffffffffffffffff160217905550507f0605cc802a7b3d18e9ae7d3533b47cfa9f47e28d43c4d3f9c58b39f47fdcefde8282604051808373ffffffffffffffffffffffffffffffffffffffff1673ffffffffffffffffffffffffffffffffffffffff16815260200180602001828103825283818151815260200191508051906020019080838360005b838110156116d35780820151818401526020810190506116b8565b50505050905090810190601f1680156117005780820380516001836020036101000a031916815260200191505b50935050505060405180910390a15050565b6060600380548060200260200160405190810160405280929190818152602001828054801561179657602002820191906000526020600020905b8160009054906101000a900473ffffffffffffffffffffffffffffffffffffffff1673ffffffffffffffffffffffffffffffffffffffff168152602001906001019080831161174c575b5050505050905090565b6005818154811015156117af57fe5b906000526020600020016000915054906101000a900473ffffffffffffffffffffffffffffffffffffffff1681565b60065481565b818181600a600084815260200190815260200160002060000154141515611899576040517f08c379a00000000000000000000000000000000000000000000000000000000081526004018080602001828103825260268152602001807f5468652070726f76696465642070726f6475637420494420646f65736e27742081526020017f65786973742e000000000000000000000000000000000000000000000000000081525060400191505060405180910390fd5b80600a6000848152602001908152602001600020600401541015151561194d576040517f08c379a00000000000000000000000000000000000000000000000000000000081526004018080602001828103825260398152602001807f54686572652773206e6f7420656e6f7567682073746f636b20617661696c616281526020017f6c6520746f2066756c6c66696c20796f7572206f726465722e0000000000000081525060400191505060405180910390fd5b82600a60008681526020019081526020016000206004016000828254039250508190555050505050565b606060088054806020026020016040519081016040528092919081815260200182805480156119c557602002820191906000526020600020905b8154815260200190600101908083116119b1575b5050505050905090565b6000809054906101000a900473ffffffffffffffffffffffffffffffffffffffff1673ffffffffffffffffffffffffffffffffffffffff163373ffffffffffffffffffffffffffffffffffffffff16141515611a93576040517f08c379a000000000000000000000000000000000000000000000000000000000815260040180806020018281038252601e8152602001807f596f75277265206e6f742074686520636f6e7472616374206f776e65722e000081525060200191505060405180910390fd5b6060604051908101604052808373ffffffffffffffffffffffffffffffffffffffff16815260200182815260200160011515815250600260008473ffffffffffffffffffffffffffffffffffffffff1673ffffffffffffffffffffffffffffffffffffffff16815260200190815260200160002060008201518160000160006101000a81548173ffffffffffffffffffffffffffffffffffffffff021916908373ffffffffffffffffffffffffffffffffffffffff1602179055506020820151816001019080519060200190611b6a92919061253d565b5060408201518160020160006101000a81548160ff02191690831515021790555090505060038290806001815401808255809150509060018203906000526020600020016000909192909190916101000a81548173ffffffffffffffffffffffffffffffffffffffff021916908373ffffffffffffffffffffffffffffffffffffffff160217905550507f0605cc802a7b3d18e9ae7d3533b47cfa9f47e28d43c4d3f9c58b39f47fdcefde8282604051808373ffffffffffffffffffffffffffffffffffffffff1673ffffffffffffffffffffffffffffffffffffffff16815260200180602001828103825283818151815260200191508051906020019080838360005b83811015611c89578082015181840152602081019050611c6e565b50505050905090810190601f168015611cb65780820380516001836020036101000a031916815260200191505b50935050505060405180910390a15050565b600b81815481101515611cd757fe5b906000526020600020016000915090505481565b60026020528060005260406000206000915090508060000160009054906101000a900473ffffffffffffffffffffffffffffffffffffffff1690806001018054600181600116156101000203166002900480601f016020809104026020016040519081016040528092919081815260200182805460018160011615610100020316600290048015611dbd5780601f10611d9257610100808354040283529160200191611dbd565b820191906000526020600020905b815481529060010190602001808311611da057829003601f168201915b5050505050908060020160009054906101000a900460ff16905083565b6000809054906101000a900473ffffffffffffffffffffffffffffffffffffffff1681565b600a602052806000526040600020600091509050806000015490806001018054600181600116156101000203166002900480601f016020809104026020016040519081016040528092919081815260200182805460018160011615610100020316600290048015611eb15780601f10611e8657610100808354040283529160200191611eb1565b820191906000526020600020905b815481529060010190602001808311611e9457829003601f168201915b505050505090806002018054600181600116156101000203166002900480601f016020809104026020016040519081016040528092919081815260200182805460018160011615610100020316600290048015611f4f5780601f10611f2457610100808354040283529160200191611f4f565b820191906000526020600020905b815481529060010190602001808311611f3257829003601f168201915b5050505050908060030154908060040154908060050154905086565b60606005805480602002602001604051908101604052809291908181526020018280548015611fef57602002820191906000526020600020905b8160009054906101000a900473ffffffffffffffffffffffffffffffffffffffff1673ffffffffffffffffffffffffffffffffffffffff1681526020019060010190808311611fa5575b5050505050905090565b60011515600460003373ffffffffffffffffffffffffffffffffffffffff1673ffffffffffffffffffffffffffffffffffffffff16815260200190815260200160002060030160009054906101000a900460ff1615151415156120ea576040517f08c379a00000000000000000000000000000000000000000000000000000000081526004018080602001828103825260228152602001807f596f7520617265206e6f742061626c6520746f206372656174652073746f726581526020017f732e00000000000000000000000000000000000000000000000000000000000081525060400191505060405180910390fd5b60a06040519081016040528060065481526020018381526020018281526020013373ffffffffffffffffffffffffffffffffffffffff1681526020016000600181111561213357fe5b81525060076000600654815260200190815260200160002060008201518160000155602082015181600101908051906020019061217192919061253d565b50604082015181600201908051906020019061218e92919061253d565b5060608201518160030160006101000a81548173ffffffffffffffffffffffffffffffffffffffff021916908373ffffffffffffffffffffffffffffffffffffffff16021790555060808201518160030160146101000a81548160ff021916908360018111156121fa57fe5b0217905550905050600860065490806001815401808255809150509060018203906000526020600020016000909192909190915055507fe74c350de5f0146f73c654eedd75653dc77ed9ad69c52cd1866d7077840728c5600654836040518083815260200180602001828103825283818151815260200191508051906020019080838360005b8381101561229b578082015181840152602081019050612280565b50505050905090810190601f1680156122c85780820380516001836020036101000a031916815260200191505b50935050505060405180910390a160016006600082825401925050819055505050565b6060600b80548060200260200160405190810160405280929190818152602001828054801561233957602002820191906000526020600020905b815481526020019060010190808311612325575b5050505050905090565b60095481565b6007602052806000526040600020600091509050806000015490806001018054600181600116156101000203166002900480601f0160208091040260200160405190810160405280929190818152602001828054600181600116156101000203166002900480156123fb5780601f106123d0576101008083540402835291602001916123fb565b820191906000526020600020905b8154815290600101906020018083116123de57829003601f168201915b505050505090806002018054600181600116156101000203166002900480601f0160208091040260200160405190810160405280929190818152602001828054600181600116156101000203166002900480156124995780601f1061246e57610100808354040283529160200191612499565b820191906000526020600020905b81548152906001019060200180831161247c57829003601f168201915b5050505050908060030160009054906101000a900473ffffffffffffffffffffffffffffffffffffffff16908060030160149054906101000a900460ff16905085565b6003818154811015156124eb57fe5b906000526020600020016000915054906101000a900473ffffffffffffffffffffffffffffffffffffffff1681565b60088181548110151561252957fe5b906000526020600020016000915090505481565b828054600181600116156101000203166002900490600052602060002090601f016020900481019282601f1061257e57805160ff19168380011785556125ac565b828001600101855582156125ac579182015b828111156125ab578251825591602001919060010190612590565b5b5090506125b991906125bd565b5090565b6125df91905b808211156125db5760008160009055506001016125c3565b5090565b905600a165627a7a7230582074d400317ee3620c7fece3ebb938c5d0470bf0e337f5ae811e2aa7c99d2b6b0a0029",
  "source": "pragma solidity ^0.4.23;\n\ncontract Marketplace {\n\n    /* Define contract owner */\n    address public owner;\n\n    /* Marketplace name */\n    string public marketplaceName;\n\n    /* Map marketplace administrators */\n    mapping (address => Administrator) public administratorsMapping;\n    /* Save administrator addresses in an array */\n    address[] public administrators;\n\n    /* Map registered store owners */\n    mapping (address => StoreOwner) public storeOwnersMapping;\n    /* Save store owners addresses in an array */\n    address[] public storeOwners;\n\n    /* storeId will be used to identify stores */\n    uint public storeId;\n    /* Map registered stores */\n    mapping (uint => Store) public storesMapping;\n    /* Save stores' storeId id in an array */\n    uint[] public stores;\n\n    /* productId will be used to identify products */\n    uint public productId;\n    /* Map registered products */\n    mapping (uint => Product) public productsMapping;\n    /* Save products' productId in an array */\n    uint[] public products;\n\n    /* Enums */\n    enum StoreState { Opened, Closed }\n\n\n    /* Structs */\n    struct Administrator {\n        address addr;\n        string name;\n        bool isEnabled; // Enable admin permissions\n    }\n\n    struct StoreOwner {\n        address addr;\n        string name;\n        uint balance;\n        bool isEnabled; // Enable store owner permissions\n    }\n\n    struct Store {\n        uint id;\n        string name;\n        string description;\n        address storeOwner;\n        StoreState state;\n    }\n\n    struct Product {\n        uint id;\n        string name;\n        string description;\n        uint price;\n        uint quantity;\n        uint storefrontId;\n    }\n\n\n    /* Events */\n    event specialUserWasRegistered (address specialUserAddress, string name);\n    event storeWasRegistered (uint id, string name);\n    event productWasRegistered (uint id, string name, uint price, uint store);\n\n\n    /* Modifiers */\n    modifier isOwner() {\n        require (msg.sender == owner, \"You're not the contract owner.\");\n        _;\n    }\n\n    modifier isAdmin() {\n        require (administratorsMapping[msg.sender].isEnabled == true, \"You're not a marketplace administrator.\");\n        _;\n    }\n\n    modifier isStoreOwnerEnabled() {\n        require (storeOwnersMapping[msg.sender].isEnabled == true, \"You are not able to create stores.\");\n        _;\n    }\n\n    modifier checkStoreExistence(uint _id) {\n        require (storesMapping[_id].id == _id, \"The provided storefront ID doesn't exist.\");\n        _;\n    }\n    \n    modifier checkStoreOwner(uint _id) {\n        require (storesMapping[_id].storeOwner == msg.sender, \"You can only register products in a store you own.\");\n        _;\n    }\n\n    modifier checkInsertedProductInfo(uint _price, uint _quantity) {\n        require (_price > 0, \"Product price has to be greater than zero.\");\n        require (_quantity >= 0, \"Product quantity has to be equal or greater than zero.\");\n        _;\n    }\n\n    modifier checkProductExistenceAndQuantity(uint _id, uint _quantity) {\n        require (productsMapping[_id].id == _id, \"The provided product ID doesn't exist.\");\n        require (productsMapping[_id].quantity >= _quantity, \"There's not enough stock available to fullfil your order.\");\n        _;\n    }\n\n\n    constructor() public {\n        /* Set the owner as the person who instantiated the contract */\n        owner = msg.sender;\n\n        /* Set the Marketplace name */\n        marketplaceName = \"Ethereum Marketplace\";\n\n        /* Set the inital value for storeId */\n        storeId = 1;\n\n        /* Set the inital value for produtcId */\n        productId = 1;\n    }\n\n\n    /* Register a marketplace administrator */\n    function registerAdmin(address _address, string _name) public isOwner() {\n        administratorsMapping[_address] = Administrator({\n            addr: _address,\n            name: _name,\n            isEnabled: true\n        });\n\n        administrators.push(_address); // Add registered admin address to admins array\n\n        emit specialUserWasRegistered(_address, _name);\n    }\n\n    /* Retrieve marketplace administrators */\n    function getAdmins() public view returns (address[]) {\n        return administrators;\n    }\n\n    /* Register a store owner */\n    function registerStoreOwner(address _address, string _name) public isAdmin() {\n\n        storeOwnersMapping[_address] = StoreOwner({\n            addr: _address,\n            name: _name,\n            balance: 0, // Store owners balance always start with zero\n            isEnabled: true\n        });\n\n        storeOwners.push(_address); // Add registered store owner address to store owners array\n\n        emit specialUserWasRegistered(_address, _name);\n    }\n\n    /* Retrieve store owners*/\n    function getStoreOwners() public view returns (address[]) {\n        return storeOwners;\n    }\n\n    /* Register a store */\n    function registerStore(string _name, string _description) public isStoreOwnerEnabled() {\n        \n        storesMapping[storeId] = Store({\n            id: storeId,\n            name: _name,\n            description: _description,\n            storeOwner: msg.sender,\n            state: StoreState.Opened\n        });\n\n        stores.push(storeId); // Add registered store ID to stores array\n\n        emit storeWasRegistered(storeId, _name);\n\n        storeId += 1;\n    }\n\n    /* Retrieve stores' storeId */\n    function getStores() public view returns (uint[]) {\n        return stores;\n    }\n\n    /* Register a product */\n    function registerProduct(string _name, string _description, uint _price, uint _quantity, uint _storefrontId) public\n        isStoreOwnerEnabled() checkStoreExistence(_storefrontId) checkStoreOwner(_storefrontId) checkInsertedProductInfo(_price, _quantity) {\n\n        productsMapping[productId] = Product({\n            id: productId,\n            name: _name,\n            description: _description,\n            price: _price,\n            quantity: _quantity,\n            storefrontId: _storefrontId\n        });\n\n        products.push(productId); // Add registered product ID to products array\n\n        emit productWasRegistered(productId, _name, _price, _storefrontId);\n\n        productId += 1;\n    }\n\n    /* Retrieve products' productId */\n    function getProducts() public view returns (uint[]) {\n        return products;\n    }\n\n    /* Buy a product */\n    function buyProduct(uint _id, uint _quantity) public checkProductExistenceAndQuantity(_id, _quantity) {\n        productsMapping[_id].quantity -= _quantity;\n    }\n\n}",
  "sourcePath": "/home/lbritoinacio/hacks/solidity/marketplace/contracts/Marketplace.sol",
  "compiler": {
    "name": "solc",
    "version": "0.4.24+commit.e67f0147.Emscripten.clang"
  },
  "schemaVersion": "2.0.1",
  "updatedAt": "2018-08-27T13:41:48.036Z"
}